:100000000C942A000C9434000C9434000C943400AA
:100010000C9434000C9434000C9434000C94340090
:100020000C9434000C9434000C9434000C94340080
:100030000C9434000C9434000C9434000C94340070
:100040000C9434000C9434000C9434000C94340060
:100050000C94340011241FBECFE5D8E0DEBFCDBF25
:100060000E9436000C945D000C9400008E9A8D9ACC
:100070008C9A60E428EC30E050E240E182B38627BD
:1000800082BB88E893E1F9013197F1F70197D9F73D
:1000900082B3852782BB88E893E1F9013197F1F7B4
:1000A0000197D9F782B3842782BB88E893E1F901ED
:0E00B0003197F1F70197D9F7E1CFF894FFCF20
:00000001FF
