:1000000012C024C023C022C021C020C01FC01EC0F7
:100010001DC01CC01BC01AC019C018C017C016C014
:1000200015C014C013C011241FBECFE5D4E0DEBF3D
:10003000CDBF10E0A0E6B0E0E6E5F3E002C0059039
:100040000D92AA3AB107D9F7C2D083C1D9CF11B85E
:1000500080E280B986B7806886BF089584EA86BF4B
:1000600006B607FEFDCF089584E986BF06B604FCF8
:10007000FDCF089583B984E886BF06B607FEFDCF9D
:100080000895882311F084EC01C084E886BF06B689
:1000900007FEFDCF83B10895599883E389B910BC59
:1000A00080B58F7B80BD8AB188618AB9579A0895DF
:1000B0005D9BFECF8CB908951F93CF93DF93EC0126
:1000C00010E0FE01E10FF11D8081882319F0F0DFBF
:1000D0001F5FF7CF8DE0ECDF8AE0DF91CF911F91BA
:1000E000E7CF9B0150E0F901E50FF11D642FE2D04D
:1000F000905D90835F5F8111F6CFF901E50FF11DEF
:1001000010820895CF93DF9300D0CDB7DEB7880F6C
:100110006A838983A3DF6A818981611101C08F5F4E
:100120000F900F90DF91CF91A5CF0F931F93CF9397
:10013000DF93CDB7DEB760970FB6F894DEBF0FBE82
:10014000CDBF182F062F97E0E0E6F0E0DE01119614
:1001500001900D929A95E1F7FE01389689E0DF0152
:100160001D928A95E9F761E0812FCCDF802F82DF35
:1001700060E0812FC7DF80E084DF40E150E0BE0116
:100180006D5F7F4F90E0A2D0CE01019695DF6CDFCE
:1001900060960FB6F894DEBF0FBECDBFDF91CF9152
:1001A0001F910F9108951F93CF93DF931F92CDB7A7
:1001B000DEB7162F61E04983A5DF812F5BDF498120
:1001C000842F58DF0F90DF91CF911F914DCFCF93A8
:1001D000DF93CDB7DEB760970FB6F894DEBF0FBEE2
:1001E000CDBF5ADF34DF80E790E066DF6CE28DE15F
:1001F0009CDF87E790E060DF8BE790E05DDF6DE2FA
:100200008DE193DF87E790E057DF48E06DE28DE115
:10021000CADF88E890E050DF6DE28DE186DF87E796
:1002200090E04ADF8EE990E047DF68E38DE17DDF13
:1002300087E790E041DF12DF8AE31CDF82E31ADF09
:100240000DDF8BE317DF81E01CDF4AE050E0BE01E9
:100250006F5F7F4F90E03AD0CE0101962DDF2FEFF8
:1002600080E792E0215080409040E1F700C000001C
:1002700081E007DF4AE050E0BE016F5F7F4F90E012
:1002800025D0CE01019618DF2FEF80E792E02150B4
:1002900080409040E1F700C0000080E0F2DEE4DE44
:1002A0002FEF89E698E1215080409040E1F700C0AF
:1002B0000000C1CF991B79E004C0991F961708F080
:1002C000961B881F7A95C9F780950895FB019F01B9
:1002D000E8944230BCF04532ACF44A3029F497FB44
:1002E0001EF4909581959F4F642F77271ED0805DD7
:1002F0008A330CF0895D8193CB010097A9F716F43E
:100300005DE251931082C90100C0DC01FC01672F3E
:1003100071917723E1F7329704C07C916D937083DC
:100320006291AE17BF07C8F30895AA1BBB1B51E12A
:1003300007C0AA1FBB1FA617B70710F0A61BB70B55
:10034000881F991F5A95A9F780959095BC01CD01FA
:060350000895F894FFCFB0
:100356003078777777770000000000000000000013
:1003660042575F524154452D2D2D00504F5745524F
:100376005F43544C2D2D2D00504F5745525F43542B
:100386004C2D20706F207A6D69616E696500464953
:0A039600464F5F43544C2D2D2D00FF
:00000001FF
