:100000000C942A000C943F000C943F000C943F0089
:100010000C943F000C943F000C943F000C943F0064
:100020000C943F000C943F000C943F000C943F0054
:100030000C943F000C943F000C943F000C943F0044
:100040000C943F000C943F000C943F000C943F0034
:100050000C943F0011241FBECFE5D8E0DEBFCDBF1A
:1000600010E0A0E6B0E0ECEBF3E002C005900D92EA
:10007000AE3AB107D9F70E940B010C94DC010C9445
:10008000000011B880E280B986B7806886BF089505
:1000900084EA86BF06B607FEFDCF089584E986BFD1
:1000A00006B604FCFDCF089583B984E886BF06B682
:1000B00007FEFDCF0895882311F484E801C084EC85
:1000C00086BF06B607FEFDCF83B10895599883E336
:1000D00089B910BC80B58F7B80BD8AB188618AB92F
:1000E000579A089520E004C05D9BFECFECB92F5FC6
:1000F000FC01E20FF11DE081EE23B1F75D9BFECF25
:100100008DE08CB95D9BFECF8AE08CB908955D9B34
:10011000FECF8CB90895282FDB0130E0FD01E30FFD
:10012000F11D822F642F0E948B01905D9083822F9E
:100130000E948B01282F3F5F882381F7A30FB11DF9
:100140001C9208950F931F93162F082F000F0E94E3
:100150004800112311F0802F02C0802F8F5F0E9472
:1001600054001F910F9108950F931F93162F042F82
:1001700061E00E94A200812F0E945400802F0E9403
:1001800054000E944E001F910F9108950F931F93EA
:10019000DF93CF93CDB7DEB760970FB6F894DEBF8D
:1001A0000FBECDBF182F062FDE011196E0E6F0E05E
:1001B00087E001900D928150E1F7FE01389689E0C9
:1001C000DF011D928A95E9F7812F61E00E94A2006C
:1001D000802F0E945400812F60E00E94A20080E0E6
:1001E0000E945B0090E0BE016D5F7F4F40E150E0F8
:1001F0000E949701CE0101960E9472000E944E005B
:1002000060960FB6F894DEBF0FBECDBFCF91DF91E1
:100210001F910F910895CF92DF92EF92FF921F935B
:10022000DF93CF93CDB7DEB760970FB6F894DEBFFC
:100230000FBECDBF0E9466000E94410080E790E0A3
:100240000E9472008DE16CE20E94C6008BE790E094
:100250000E9472008FE790E00E9472008DE16DE2D3
:100260000E94C6008BE790E00E9472008DE16DE273
:1002700048E00E94B4008CE890E00E9472008DE19A
:100280006DE20E94C6008BE790E00E94720082EA55
:1002900090E00E9472008DE168E30E94C6008BE747
:1002A00090E00E9472006E010894C11CD11C88EC81
:1002B000E82EF12C0E9448008AE30E94540082E359
:1002C0000E9454000E9448008BE30E94540010E0FA
:1002D00081E00E945B0090E0B6014AE050E00E949D
:1002E0009701C6010E94720088EE93E0F7013197F2
:1002F000F1F70197D9F71F5F123051F780E00E94A4
:100300005B000E944E0080E197E2F7013197F1F720
:100310000197D9F7CFCF991B79E004C0991F9617A1
:1003200008F0961B881F7A95C9F780950895FB0100
:100330009F01E8944230C4F04532B4F44A3029F4C5
:1003400097FB1EF4909581959F4F642F77270E940D
:10035000C801805D8A330CF0895D8193CB010097E1
:10036000A1F716F45DE251931082C9010C94B80113
:10037000DC01FC01672F71917723E1F7329704C00C
:100380007C916D9370836291AE17BF07C8F3089597
:10039000AA1BBB1B51E107C0AA1FBB1FA617B707AB
:1003A00010F0A61BB70B881F991F5A95A9F78095C7
:0C03B0009095BC01CD010895F894FFCF9A
:1003BC0030787777777700000000000000000000AD
:1003CC0042575F524154452D2D2D002D2D2D00509F
:1003DC004F5745525F43544C2D2D2D00504F5745D0
:1003EC00525F43544C2D20706F207A6D69616E6999
:0E03FC0065004649464F5F43544C2D2D2D00A1
:00000001FF
