:100000000C942A000C9482000C9447000C94470036
:100010000C9447000C9447000C9447000C94BB00D0
:100020000C9447000C9447000C9447000C94470034
:100030000C9447000C9403010C9447000C94470067
:100040000C9447000C9447000C9447000C94470014
:100050000C94470011241FBECFE5D8E0DEBFCDBF12
:1000600010E0A0E6B0E0ECE5F3E002C005900D92F0
:10007000AA38B107D9F710E0AAE8B0E001C01D9294
:10008000A139B107E1F70E94E4000C94AC010C9493
:100090000000599883E389B910BC80B58F7B80BD7F
:1000A0008AB188618AB9579A08958EB58C608EBDE1
:1000B00089B7806189BF80918800909189009BBD3C
:1000C0008ABD08955D9BFECF8CB908951F93CF9391
:1000D000DF93EC0110E004C090E00E9462001F5F1B
:1000E000FE01E10FF11D80818823B1F78DE090E0E2
:1000F0000E9462008AE090E00E946200DF91CF914E
:100100001F9108951F920F920FB60F9211242F93F3
:100110003F938F93EF93FF9310928A002091740086
:10012000309175000EC080918A00F901E80FF11D31
:10013000E0815D9BFECFECB980918A008F5F809358
:100140008A0080918A00F901E80FF11D80818823DF
:1001500051F75D9BFECF8DE08CB95D9BFECF8AE0B1
:100160008CB9FF91EF918F913F912F910F900FBE1E
:100170000F901F9018951F920F920FB60F92112497
:100180008F93EF93FF9380918C00882321F08091CF
:100190008B008F5F03C080918B00815080938B0018
:1001A00080918B008F7080938B00E0918B00F0E04A
:1001B000EA58FF4F808185BBFF91EF918F910F909F
:1001C0000FBE0F901F9018958A98929A81B3806CF9
:1001D00081BB969A8FE384BBF8948BB780648BBF06
:1001E00085B7826085BF0E9449008EB58C608EBD48
:1001F00089B7806189BF80918800909189009BBDFB
:100200008ABD7894FFCF1F920F920FB60F921124E0
:100210002F933F934F935F936F937F938F939F930E
:10022000AF93BF93EF93FF932CB1822F80538A300B
:1002300038F4822F90E0C0979093870080938600D7
:10024000213431F48091880090918900059707C08E
:10025000223451F480918800909189000196909306
:100260008900809388000AC0233419F410928C000E
:1002700005C0243419F481E080938C0080918800BB
:10028000909189009BBD8ABD8091880090918900E2
:100290006DE870E04AE050E00E9467018DE890E070
:1002A0000E94660080E29EE40197F1F7FF91EF91D2
:1002B000BF91AF919F918F917F916F915F914F917E
:1002C0003F912F910F900FBE0F901F901895FB013B
:1002D0009F01E8944230C4F04532B4F44A3029F426
:1002E00097FB1EF4909581959F4F642F77270E946E
:1002F0009801805D8A330CF0895D8193CB01009772
:10030000A1F716F45DE251931082C9010C948801A3
:10031000DC01FC01672F71917723E1F7329704C06C
:100320007C916D9370836291AE17BF07C8F30895F7
:10033000AA1BBB1B51E107C0AA1FBB1FA617B7070B
:1003400010F0A61BB70B881F991F5A95A9F7809527
:0C0350009095BC01CD010895F894FFCFFA
:10035C0064004B6F6B6F737A20547920426F6F433C
:10036C0049452100620005002D0028002E000600E2
:0A037C003600300035000100640077
:00000001FF
