:100000000C9446000C9463000C9463000C94630001
:100010000C9463000C9463000C9463000C946300D4
:100020000C9463000C9463000C9463000C946300C4
:100030000C9463000C9463000C9463000C946300B4
:100040000C9463000C9463000C9463000C946300A4
:100050000C9463000C9463000C9463000C94630094
:100060000C9463000C9463000C9463000C94630084
:100070000C9463000C9463000C9463000C94630074
:100080000C9463000C9463000C94630011241FBE55
:10009000CFEFD0E1DEBFCDBF15E0A0E0B1E0E0E101
:1000A000F7E300E00BBF02C007900D92A83AB1073A
:1000B000D9F71AE0A8EAB5E001C01D92AC34B10747
:1000C000E1F70C948A020C9400009FEF9BBB8FED2C
:1000D0008ABB18BA17BA15BA94BB12BA11BA13B8B8
:1000E00012B8109262001092610010926500109296
:1000F000640010BE13BE12BE11BE1FBC1EBC1DBCD0
:100100001CBC1BBC1ABC19BC18BC10927900109204
:10011000780015BC14BC13BC10928B0010928A009E
:100120001092890010928800109287001092860029
:100130001092850010928400109283001092820029
:1001400010926A001ABE19BE17BE10927D0082E09E
:100150008BB988E08AB986E0809395001092900070
:1001600080E189B980E888B910BC08955D9BFECF15
:100170008CB980E090E008952F923F924F925F9269
:100180006F927F928F929F92AF92BF92CF92DF92A7
:10019000FF920F931F93CF93DF931B012C018824B1
:1001A000992454010E947A0A9F938F9380E091E0F2
:1001B0009F938F930E948E160F900F900F900F9029
:1001C000A5019401C201B1010E940C0A6C01892BA6
:1001D00009F4B9C066247724F6018081882309F4E4
:1001E000B2C0853E09F49DC083858F3009F499C063
:1001F000E6018601095F1F4F89910E94B6000C1726
:100200001D07D4F78EE290E00E94A316E60128961F
:100210008601065F1F4F89910E94B6000C171D07CB
:10022000D4F780E191E09F938F930E948E16F601A0
:10023000838599279F938F9389E191E09F938F9373
:100240000E948E168EE191E09F938F930E948E16EE
:10025000F601828D938D9F938F9389E291E09F9316
:100260008F930E948E16F601208981899927582F35
:100270004427420F511D668587859927382F2227ED
:10028000260F311DCA01892F99278695682FC9012C
:10029000892F9927869586958695F82EC90135E090
:1002A000969587953A95E1F7082F0F73122F1F71D6
:1002B000110F862F99278454984F9F938F93CA01CB
:1002C0008F7190709F938F9385E0569547958A958F
:1002D000E1F74F7050705F934F938EE291E09F93E0
:1002E0008F930E948E16812F99279F938F93802F33
:1002F00099279F938F938F2D99279F938F938EE3A9
:1003000091E09F938F930E948E168EE491E00E945D
:10031000AA168DB79EB74C960FB6F8949EBF0FBE27
:100320008DBFE0E2F0E0CE0EDF1E0894611C711C70
:10033000F0E16F1671040CF44FCF0894811C911CEE
:10034000A11CB11C3DCFDF91CF911F910F91FF9068
:10035000DF90CF90BF90AF909F908F907F906F90E5
:100360005F904F903F902F900895CF93DF930E941E
:100370009107DC01CB01BF93AF939F938F9380E5EF
:1003800091E09F938F930E948E160E94A4079F93E3
:100390008F938FE591E09F938F930E948E160E941A
:1003A000D809EC018DB79EB70A960FB6F8949EBF98
:1003B0000FBE8DBF8C8199278B309105D9F08C3081
:1003C000910534F48430910549F0069751F015C039
:1003D0008C30910561F00E9739F00FC08BE691E0FB
:1003E0000EC08DE791E00BC08BE891E008C08DE96D
:1003F00091E005C08FEA91E002C08DEB91E00E9490
:10040000AA160E94C8099F938F9383ED91E09F9352
:100410008F930E948E1688859985AA85BB85BF9388
:10042000AF939F938F938BEE91E09F938F930E9456
:100430008E168C859D85AE85BF85BF93AF939F93A8
:100440008F9384E092E09F938F930E948E160E9478
:10045000DB099F938F938DE192E09F938F930E948E
:100460008E160E94E009DC01CB01BF93AF939F93EE
:100470008F9385E392E09F938F930E948E160E9444
:10048000EB09DC01CB01BF93AF939F938F938EE475
:1004900092E09F938F930E948E168DB79EB78096A1
:1004A0000FB6F8949EBF0FBE8DBF0E94F609DC0107
:1004B000CB01BF93AF939F938F9387E692E09F9377
:1004C0008F930E948E160E94010ADC01CB01BF931C
:1004D000AF939F938F9380E892E09F938F930E94B6
:1004E0008E160E948607DC01CB01BF93AF939F93CA
:1004F0008F9389E992E09F938F930E948E168DB718
:100500009EB742960FB6F8949EBF0FBE8DBFDF9187
:10051000CF910895C3EFD0E1DEBFCDBF0E9465004B
:1005200040E050E06AE674E086EB90E00E944816F6
:1005300082EB92E00E94AA1685ED92E00E94AA1634
:100540000E9405050E9400080E94B5018DE093E01D
:100550000E94AA160E94CD09DC01CB01BC01CD018D
:100560000E94BC0085E0DE011196ECE1F3E0019011
:100570000D928A95E1F77E010894E11CF11CFF922F
:10058000EF9281E293E09F938F930E948E16C701B2
:100590000E94E7130F900F900F900F90882329F07F
:1005A000FF92EF9282E393E004C0FF92EF928CE41B
:1005B00093E09F938F930E948E160F900F900F9051
:1005C0000F908DE093E00E94AA160E948E10DC012D
:1005D000CB01BC01CD010E94BC00FF92EF928AE6E4
:1005E00093E09F938F930E948E16C7010E943B1049
:1005F0000F900F900F900F90882389F0FF92EF9249
:1006000088E793E09F938F930E948E160E948E102E
:10061000DC01CB01BC01CD010E94BC0008C0FF92EF
:10062000EF928AE893E09F938F930E948E160F902B
:100630000F900F900F90FF92EF928BE993E09F93B2
:100640008F930E948E1685EB93E00E94DF120F902D
:100650000F900F900F90892BC9F080EC93E00E94CF
:10066000AA16FF92EF9288E793E09F938F930E94E0
:100670008E160E948E10DC01CB01BC01CD010E94C0
:10068000BC000F900F900F900F9004C085EE93E088
:100690000E94AA16FF92EF9282E094E09F938F93BC
:1006A0000E948E1685EB93E00E949D0F8C010F90A7
:1006B0000F900F900F90892B09F46EC0FF92EF926C
:1006C0008CE194E09F938F930E948E16FF92EF929D
:1006D00089E394E09F938F930E948E1664E5C8018E
:1006E0000E94681165E6C8010E94681163E7C801AD
:1006F0000E94681164E7C8010E94681169E6C80198
:100700000E9468116EE6C8010E94681167E6C80180
:100710000E94681160E2C8010E94681161E3C8018B
:100720000E94681162E3C8010E94681163E3C80176
:100730000E94681184E694E00E94AA16C8010E94F3
:100740002E0C20E040E050E060E070E0C8010E9424
:10075000450C87E794E00E94AA162DB73EB7285FA4
:100760003F4F0FB6F8943EBF0FBE2DBF06C0C80165
:100770000E94030D99270E94A316C8010E94EE0C47
:100780008823A9F38AE894E00E94AA16C8010E946F
:10079000B70E8DE994E002C088EB94E00E94AA169F
:1007A000FF92EF9284ED94E09F938F930E948E16B8
:1007B00069EF74E085EB93E00E94E40F0F900F90D7
:1007C0000F900F908823A9F0FF92EF9288E793E0B3
:1007D0009F938F930E948E160E948E10DC01CB0196
:1007E000BC01CD010E94BC000F900F900F900F90A4
:1007F00004C082E095E00E94AA16FF92EF928FE17A
:1008000095E09F938F930E948E160E94F715FF929A
:10081000EF9288E793E09F938F930E948E160E9439
:100820008E10DC01CB01BC01CD010E94BC00FF9207
:10083000EF9281E395E09F938F930E948E1681E45F
:1008400095E00E943B102DB73EB7245F3F4F0FB697
:10085000F8943EBF0FBE2DBF882369F08DE093E072
:100860000E94AA160E948E10DC01CB01BC01CD01B2
:100870000E94BC0004C084E495E00E94AA16FF9286
:10088000EF9286E595E09F938F930E948E16C701A5
:100890000E9451120F900F900F900F90882369F0D3
:1008A0008DE093E00E94AA160E948E10DC01CB011D
:1008B000BC01CD010E94BC000CC0FF92EF9288E603
:1008C00095E09F938F930E948E160F900F900F903C
:1008D0000F90FFCF5F9903C08FEF9FEF08958CB10A
:1008E0009927089508959FEF94BB9BB3907E9BBB7F
:1008F000982F9F718BB3892B8BBB65BBDE98000053
:1009000000000000DE9A0895039665E070E00E9402
:10091000521BCB01AA27BB2724E0880F991FAA1FCF
:10092000BB1F2A95D1F7009711F00197FCCF0895CE
:100930000F931F93FC0114BA17BA8FEF85BB88BBC6
:100940008BB3807E8BBBDB9A00E010E006171707A5
:1009500070F4DF980000000083B3819386B3819325
:10096000DF9AC80102968C018617970790F31F91B2
:100970000F910895882311F060EB01C060EA8EE0CA
:100980000E94730408950F931F93FC018FEF84BBA3
:1009900087BB8BB3807E8BBBDB9A00E010E0061731
:1009A000170770F4819185BB819188BBDE980000A8
:1009B0000000DE9AC80102968C018617970790F313
:1009C0001F910F9108959FEF95BB14BA9BB3907E32
:1009D0009BBB982F9F718BB3892B8BBBDF9800003B
:1009E0000000000083B3DF9A992708951F93182F02
:1009F00086E10E94E3048123811719F481E090E0ED
:100A000002C080E090E01F910895CF93DF9314BA65
:100A100017BA8FEF85BB88BB8FED8ABB80EC8BBB91
:100A200066E086E10E94730484E690E00E948404FC
:100A300060E086E10E94730484E690E00E948404F2
:100A400080E80E94F6048130D9F360E08EE00E94D5
:100A5000730462E086E10E94730480E40E94F6045D
:100A60008823D9F36CEE8FE00E94730488E00E9423
:100A7000F6048823D9F388EC90E00E94840460E0B7
:100A800072E08CEA95E00E9498048091AE05909106
:100A9000AF059093AD078093AC078091B20580932A
:100AA000AE078091B8058093AF07809116068093BA
:100AB000B4078091240690912506A0912606B09156
:100AC00027068093B0079093B107A093B207B09325
:100AD000B307ACEAB5E0ECEAF7E096E2ED018FA9E6
:100AE00081878EA9828792503296129697FFF6CF11
:100AF0001092DD078091B407882321F58091AC071F
:100B00009091AD07AA27BB272091AE073327442732
:100B10005527BC01CD010E94331BDC01CB01209184
:100B2000AF07332744275527BC01CD010E94331B53
:100B3000DC01CB018093B0079093B107A093B2077B
:100B4000B093B307DF91CF9108951F93CF93182FE0
:100B5000C62F86E10E94E304982F81238C17C9F3E6
:100B6000892F9927CF911F9108951F93CF93162F07
:100B7000C42F0E94BA0460E8862F0E94A505812F29
:100B800099278130910571F0823091051CF4892BF1
:100B900039F014C08230910539F0039759F00EC036
:100BA00060EE09C061EE07C06C2F8AE00E947304FA
:100BB00063EE01C066EE8FE00E947304CF911F9137
:100BC0000895DF92EF92FF920F931F93CF93DF93DD
:100BD000E82EF62EEA01D22E60E8862F0E94A505A7
:100BE0006F2D7727EE2011F0605501C060568EE022
:100BF0000E9473048D2F9927682F8DE00E94730443
:100C00006C2F8CE00E9473046D2D8BE00E947304A6
:100C100061E08AE00E94730461E28FE00E94730445
:100C200060E8862F0E94A50580FF03C081E090E068
:100C30000FC060E088E00E94A50560E072E0C80196
:100C40000E9498048FE00E94E304992781709070BD
:100C5000DF91CF911F910F91FF90EF90DF9008955A
:100C6000DF92EF92FF920F931F93CF93DF93E82EC3
:100C7000F62EEA01D22E60E8862F0E94A5056F2D80
:100C80007727EE2011F0605501C060568EE00E947B
:100C900073048D2F9927682F8DE00E9473046C2FA9
:100CA0008CE00E9473046D2D8BE00E94730461E060
:100CB0008AE00E94730461E38FE00E94730460E0A5
:100CC00088E00E94A50560E072E0C8010E94C304AC
:100CD00060E8862F0E94A505992781709070DF91AA
:100CE000CF911F910F91FF90EF90DF9008950F9398
:100CF0001F93DA01B070452F562F672F7727FA011F
:100D0000AB0166277727BA016F7070706064890144
:100D10002A2FAF010E94E10599271F910F91089595
:100D20000F931F93DA01B070452F562F672F772747
:100D3000FA01AB0166277727BA016F7070706064A3
:100D400089012A2FAF010E94300699271F910F9128
:100D500008955F926F927F928F929F92AF92BF920F
:100D6000CF92DF92EF92FF920F931F93CF93DF9377
:100D7000582E3A014B01E901F80180819181A2814D
:100D8000B38184179507A607B70719F480E090E0B0
:100D900047C040835183628373838091B407882363
:100DA00021F0852D0E9477063AC08091AF07E82E8A
:100DB000FF2400271127CB01BA01A80197010E9447
:100DC000661BDC01CB01C82EDD240894C11CD11C9C
:100DD000C401B301A80197010E94661B39014A01B1
:100DE0008091AE07E82EFF2400271127CA01B90120
:100DF000A80197010E94661BDC01CB01A82EBB2431
:100E0000C401B301A80197010E94661B39014A0180
:100E10008E012C2DA3016A2D852D0E94E1059927B5
:100E2000DF91CF911F910F91FF90EF90DF90CF90C6
:100E3000BF90AF909F908F907F906F905F9008953C
:100E40005F926F927F928F929F92AF92BF92CF925A
:100E5000DF92EF92FF920F931F93CF93DF93582E61
:100E60003A014B01E9018091B407882321F0852DD7
:100E70000E9490063AC08091AF07E82EFF24002719
:100E80001127CB01BA01A80197010E94661BDC0162
:100E9000CB01C82EDD240894C11CD11CC401B301B0
:100EA000A80197010E94661B39014A018091AE0793
:100EB000E82EFF2400271127CA01B901A8019701D4
:100EC0000E94661BDC01CB01A82EBB24C401B30128
:100ED000A80197010E94661B39014A018E012C2D41
:100EE000A3016A2D852D0E9430069927DF91CF91AD
:100EF0001F910F91FF90EF90DF90CF90BF90AF9038
:100F00009F908F907F906F905F9008958091B00731
:100F10009091B107A091B207B091B307BC01CD0188
:100F200008958091B0079091B107A091B207B09158
:100F3000B307BC01CD0121EA37E040E050E00E9458
:100F4000661BCA01B901089585EB97E00895CF9318
:100F5000DF93EC01DB01611571058105910521F439
:100F6000A2E0B0E0C0E0D0E01297C109D1098091C1
:100F7000DE079091DF079C0144275527BD01CE0174
:100F80000E94331B9B01AC018091110A9091120ABF
:100F9000A091130AB091140A820F931FA41FB51FCA
:100FA000BC01CD01DF91CF910895EF92FF920F9395
:100FB0001F939B01AC018091110A9091120AA0919C
:100FC000130AB091140A281B390B4A0B5B0B809152
:100FD000DE079091DF077C0100271127CA01B901C4
:100FE000A80197010E94661BDA01C9010296A11DA2
:100FF000B11DBC01CD011F910F91FF90EF9008959D
:101000008F929F92AF92BF92CF92DF92EF92FF9218
:101010000F931F93CF93DF930EE715E02091880580
:101020003091890540E050E060E070E080E00E948F
:10103000A906E0918805F091890580E1A6E2BAE071
:10104000E254FE4F01900D928A95E1F720918805B8
:101050003091890540912E0A50912F0A6091300AF3
:101060007091310A80E00E94A906C0918805D09154
:1010700089052B96A0902E0AB0902F0AC090300AB6
:10108000D090310AA092110AB092120AC092130AAB
:10109000D092140A4B855C858D812B813C819CE329
:1010A000892E912C8C0E9D1E41155105D1F099274A
:1010B000849FB001859F700D949F700D1124260FA1
:1010C000371FC901AA27BB278A0D9B1DAC1DBD1D5B
:1010D0008093110A9093120AA093130AB093140AF2
:1010E00020C07901002711279927AA27BB27298D1E
:1010F0003A8D4B8D5C8DBC01CD010E94331BDC0110
:10110000CB01E80EF91E0A1F1B1FEA0CFB1C0C1D6D
:101110001D1DE092110AF092120A0093130A109317
:10112000140A8A8199279093DF078093DE078B81C9
:101130009C81AA27BB278A0D9B1DAC1DBD1D8093DA
:10114000190A90931A0AA0931B0AB0931C0A898D5E
:101150009A8DAB8DBC8D80931E0A90931F0AA0932D
:10116000200AB093210A0E948607DC01CB012A8164
:10117000332744275527BC01CD010E94661B2093CD
:10118000E4073093E5074093E6075093E7078BE0C9
:10119000AAE3BAE0F40101900D928A95E1F710926A
:1011A000450A80912A0A99278D3091054CF48B309D
:1011B0009105BCF48430910529F0069719F021C0FF
:1011C0000E97F9F482E090E0A0E0B0E08093360A58
:1011D0009093370AA093380AB093390A10921D0AE7
:1011E00013C089A19AA1ABA1BCA18093360A9093A8
:1011F000370AA093380AB093390A8FEF80931D0AFB
:1012000003C080E090E04CC080911D0AA0902E0A9F
:10121000B0902F0AC090300AD090310A2091190A5C
:1012200030911A0A40911B0A50911C0AE090360A2C
:10123000F090370A0091380A1091390A6DA17EA109
:10124000882329F0898D9A8DAB8DBC8D04C08B8548
:101250009C85AA27BB27280F391F4A1F5B1F209395
:10126000150A3093160A4093170A5093180ACB01B7
:10127000AA27BB278A0D9B1DAC1DBD1D8093220A8A
:101280009093230AA093240AB093250AE092E007E2
:10129000F092E1070093E2071093E3078FEF90E0ED
:1012A000DF91CF911F910F91FF90EF90DF90CF9042
:1012B000BF90AF909F908F900895AF92BF92CF92C2
:1012C000DF92EF92FF920F931F939B01AC018091ED
:1012D0001D0A882391F089019A01E2E0000F111F95
:1012E000221F331FEA95D1F77FEFA72E7FEFB72E8E
:1012F0007FEFC72E7FE0D72E0CC089019A01000F27
:10130000111F221F331F5FEFA52E5FEFB52EC12CDB
:10131000D12CD901C80149E0B695A7959795879535
:101320004A95D1F74091190A50911A0A60911B0A07
:1013300070911C0A480F591F6A1F7B1F1170207083
:101340003070780102E815E028EE37E080E00E9476
:10135000A90688EE97E0E80EF91EF7016081718119
:10136000828193816A217B218C219D216A157B05D5
:101370008C059D0521F460E070E080E090E01F9115
:101380000F91FF90EF90DF90CF90BF90AF900895B6
:101390008091DE079091DF0708958091360A909141
:1013A000370AA091380AB091390ABC01CD010895DD
:1013B00086E29AE008958091DE079091DF07089514
:1013C0008091190A90911A0AA0911B0AB0911C0AE7
:1013D000BC01CD0108958091150A9091160AA09143
:1013E000170AB091180ABC01CD0108958091110A25
:1013F0009091120AA091130AB091140ABC01CD0178
:1014000008958091E4079091E507A091E607B091D7
:10141000E707BC01CD0108954F925F926F927F92D2
:101420008F929F92AF92BF92CF92DF92EF92FF92F4
:101430000F931F937B018C0149015A0144245524C9
:1014400032018091DE079091DF079C0144275527E8
:10145000C501B4010E94661B421653066406750658
:1014600060F4C801B7010E945D097B018C010894FA
:10147000411C511C611C711CE4CFE114F1040105F5
:10148000110519F480E090E026C0C801B7010E9460
:10149000A7076B017C018091DE079091DF079C011B
:1014A00044275527C501B4010E94661BDC01CB010E
:1014B000C80ED91EEA1EFB1E0EE715E02091880516
:1014C00030918905B701A60180E00E94A9068091AC
:1014D0008805909189051F910F91FF90EF90DF9003
:1014E000CF90BF90AF909F908F907F906F905F90C4
:1014F0004F9008958AE39AE008958F929F92AF9259
:10150000BF92CF92DF92EF92FF920F931F93CF93F0
:10151000DF936B017C01C701B6010E94A7074B0155
:101520005C01C0E0D0E08091DE079091DF07C81732
:10153000D90738F5CE01AA27BB27880D991DAA1D0A
:10154000BB1D0EE715E02091880530918905AC019F
:10155000BD0180E00E94A906E0918805F09189050F
:1015600020E030E08081853E11F0882311F4CF0126
:1015700023C0B0962F5F3F4F2031310598F321965D
:10158000D2CFC701B6010E945D096B017C016115D4
:1015900071058105910571F08091E4079091E5074F
:1015A000A091E607B091E707C816D906EA06FB0640
:1015B00008F4B1CF80E090E0DF91CF911F910F91BF
:1015C000FF90EF90DF90CF90BF90AF909F908F9063
:1015D0000895CF92DF92EF92FF920F931F93CF93D4
:1015E000DF93AB01BC01C0918605D0918705809146
:1015F0001D0A0091190A10911A0A20911B0A3091B4
:101600001C0A8823E9F16A017B0187E0F694E794DC
:10161000D794C7948A95D1F737C08B0122273327F7
:101620008091190A90911A0AA0911B0AB0911C0A84
:10163000C81AD90AEA0AFB0AB7E0CC0CDD1CEE1C7A
:10164000FF1CBA95D1F70C0D1D1D2E1D3F1D73C03B
:101650008B01222733278091190A90911A0AA091B1
:101660001B0AB0911C0AC81AD90AEA0AFB0ABE2D45
:10167000AD2D9C2D8827080F191F2A1F3B1F5BC00B
:10168000C52ED62EE72EFF24C00ED11EE21EF31E5D
:1016900002E815E02091860530918705B701A60183
:1016A00080E00E94A90680911D0A882399F060E0DD
:1016B00070E0FE0181919191A191B191BF7000976D
:1016C000A105B10509F4A9CF6F5F7F4F603871059F
:1016D00088F30EC060E070E0FE0181919191892B4A
:1016E00009F4B6CF6F5F7F4F6F3F7105B1F3A8F379
:1016F0000894C11CD11CE11CF11C8091190A909125
:101700001A0AA0911B0AB0911C0A20911E0A30915E
:101710001F0A4091200A5091210A820F931FA41F93
:10172000B51FC816D906EA06FB0608F4B1CF00E0DB
:1017300010E020E030E0C901B801DF91CF911F91A6
:101740000F91FF90EF90DF90CF900895EF92FF926E
:101750000F931F937B018C010E945D096115710538
:1017600081059105B9F7C801B7011F910F91FF904D
:10177000EF9008954F925F926F927F928F929F9217
:10178000AF92BF92CF92DF92EF92FF920F931F938F
:101790004B015C01C501B4010E94A707AB01BC016C
:1017A0008091DE079091DF07442455243201892B74
:1017B000C1F16A017B010EE715E0209188053091A7
:1017C0008905B701A60180E00E94A906E09188057D
:1017D000F091890520E030E080818E3239F0882355
:1017E00061F1853E19F080E090E029C0B0962F5F4E
:1017F0003F4F2031310584F30894411C511C611C7A
:10180000711C0894C11CD11CE11CF11C8091DE07E5
:101810009091DF07AA27BB27481659066A067B0660
:1018200050F2C501B4010E945D094B015C016115D4
:1018300071058105910509F0ADCF8FEF90E01F9103
:101840000F91FF90EF90DF90CF90BF90AF909F905F
:101850008F907F906F905F904F900895CF93DF931C
:10186000EC0188A5882361F088A199A1AA27BB274C
:101870002AA13BA1AC01BD0180E00E94200718A66F
:101880008FEF90E0DF91CF9108954F925F926F922A
:101890007F928F929F92AF92BF92CF92DF92EF9200
:1018A000FF920F931F93CF93DF93EC01822F992721
:1018B00081309105B1F0823091051CF4892B61F0E3
:1018C0001DC00297D9F48C8D9D8DAE8DBF8D841B6C
:1018D000950BA60BB70B0DC04CA35DA36EA37FA306
:1018E00010C08CA19DA1AEA1BFA1840F951FA61F02
:1018F000B71F8CA39DA3AEA3BFA303C080E090E05D
:101900005CC08C899D89AA27BB273C0155244424AF
:101910008A8D9B8DAA27BB27480E591E6A1E7B1EE7
:10192000C090DE07D090DF07C601982F8827990F57
:101930009C0144275527ECA0FDA00EA11FA1C801C2
:10194000B7010E94661B49015A0199E01695079557
:10195000F794E7949A95D1F7960144275527C80143
:10196000B7010E94661B7B018C0181149104A104C4
:10197000B10461F0C301B2010E945D092B013C0179
:10198000089481089108A108B108EFCFC301B20102
:101990000E94A707DC01CB018E0D9F1D88A399A390
:1019A000AA27BB270EE715E02AA13BA1AC01BD0188
:1019B00080E00E94A9068FEF9FEFDF91CF911F91EA
:1019C0000F91FF90EF90DF90CF90BF90AF909F90DE
:1019D0008F907F906F905F904F900895FC0124A1AD
:1019E00035A146A157A1848D958DA68DB78D281759
:1019F00039074A075B0718F08FEF90E0089580E001
:101A000090E008950895CF92DF92EF92FF920F93A6
:101A10001F93CF93DF93EC010E94EE0C882319F003
:101A200080E090E056C0ECA1FDA1F1708CA19DA1D9
:101A3000AEA1BFA10196A11DB11D8CA39DA3AEA314
:101A4000BFA30197A105B10511F0309729F08AA134
:101A50009BA1E80FF91F3BC008A119A1C801AA2743
:101A6000BB27BC01CD010E94D5076B017C010F5F34
:101A70001F4FC801AA27BB27BC01CD010E94D50773
:101A8000DC01CB01C816D906EA06FB0619F408A347
:101A900019A30EC0C701B6010E945D09DC01CB018C
:101AA000BC01CD010E94A707DC01CB0188A399A34B
:101AB00088A199A1AA27BB270EE715E02AA13BA17F
:101AC000AC01BD0180E00E94A906EAA1FBA18081D2
:101AD0009927DF91CF911F910F91FF90EF90DF90A9
:101AE000CF900895EF92FF920F931F93CF93DF93C0
:101AF000CDB7DEB72C970FB6F894DEBF0FBECDBFC3
:101B00008C01FF24EF2C4CE050E0BC01CE0101968B
:101B10000E94F61689818E3299F451E0F52E8A8161
:101B20008E3211F442E0F42E80E2F801EF0DF11D47
:101B30008193F3949AE09F15D8F748C0E39412C0BC
:101B40009E012F5F3F4FD801F901EE0DF11DE0819D
:101B5000EE32A1F3EE2331F0E394ED93F394F7E04A
:101B6000FF1590F787E08F1548F080E2F801EF0D40
:101B7000F11D8193F39497E09F15D8F7F901EE0DCD
:101B8000F11D80818E3209F4E394EAE0EF1578F0DC
:101B9000D801AF0DB11DF901EE0DF11DE081EE236D
:101BA00031F0E394ED93F394FAE0FF15A0F78AE0A7
:101BB0008F1548F080E2F801EF0DF11D8193F39449
:101BC0009AE09F15D8F7C8010E940517F8011386FF
:101BD0002C960FB6F894DEBF0FBECDBFDF91CF912C
:101BE0001F910F91FF90EF9008952F923F924F9287
:101BF0005F926F927F928F929F92AF92BF92CF929D
:101C0000DF92EF92FF920F931F93CF93DF93CDB7A5
:101C1000DEB72C970FB6F894DEBF0FBECDBF1C0108
:101C20008824992454014CE050E0CE0101960E9492
:101C3000F6161C86CE0101960E94720DC090E00738
:101C4000D090E107E090E207F090E30744245524A8
:101C50008091DE079091DF074816590608F04CC0C6
:101C6000C701B6010E94A7074B015C01C201AA2768
:101C700097FDA095BA2F880E991EAA1EBB1E0EE7CF
:101C800015E02091880530918905B501A40180E017
:101C90000E94A906009188051091890561E0662ED1
:101CA000712CF8018081882309F446C0853EB9F083
:101CB000F80183858F3099F04BE050E0BE016F5FF3
:101CC0007F4FC8010E94E816892B49F480E2D101B8
:101CD000F80101900D928A95E1F7C8012FC0005ECE
:101CE0001F4F0894611C711CF1E16F167104CCF256
:101CF0000894411C511CACCFC701B6010E945D097C
:101D00006B017C018091190A90911A0AA0911B0A1B
:101D1000B0911C0A20911E0A30911F0A4091200A9E
:101D20005091210A820F931FA41FB51F8816990690
:101D3000AA06BB0608F48ACF80E090E02C960FB686
:101D4000F894DEBF0FBECDBFDF91CF911F910F91F1
:101D5000FF90EF90DF90CF90BF90AF909F908F90CB
:101D60007F906F905F904F903F902F900895CF920B
:101D7000DF92EF92FF920F931F93CF93DF93CDB734
:101D8000DEB7A7970FB6F894DEBF0FBECDBF8C01AC
:101D9000FC01C48CD58CE68CF78C14A215A216A27B
:101DA00017A20E942E0C882309F4B6C0B801CE01F8
:101DB00001960E94F50D8C01009709F4AFC0FC015B
:101DC000C48ED58EE68EF78ECE0181960E9439168E
:101DD0008DA1482F5527542F4427550F550F550FC8
:101DE0008EA1992725E0880F991F2A95E1F7480FC2
:101DF000591F8FA18695480F511D2BA13CA12C5B2B
:101E00003740322F2227330F8AA19927B5E0880F58
:101E1000991FBA95E1F7280F391F89A1280F311DA5
:101E2000F801468B852F9927878B208F832F992741
:101E3000818F228B838B80917E0590917F05A0916D
:101E40008005B09181052091880530918905AC010C
:101E5000BD0180E00E9420078091220A9091230A10
:101E6000A091240AB091250A0EE715E0209188057B
:101E700030918905AC01BD0180E00E94A906E09186
:101E80008805F0918905E851FE4F8FEF8083E0913E
:101E90008805F0918905E751FE4F8083E091880520
:101EA000F0918905E651FE4F8083E0918805F0911D
:101EB0008905E551FE4F8083E0918805F091890501
:101EC000E451FE4F8083E0918805F0918905E3514C
:101ED000FE4F8083E0918805F0918905E251FE4F25
:101EE0008083E0918805F0918905E151FE4F808360
:101EF00080917E0590917F05A0918005B09181052C
:101F00002091880530918905AC01BD0180E00E94D7
:101F100020078FEF90E002C080E090E0A7960FB618
:101F2000F894DEBF0FBECDBFDF91CF911F910F910F
:101F3000FF90EF90DF90CF9008950F931F93BC0117
:101F400088EE99E00E94F50D0097D9F18091FC0987
:101F50009091FD09AA27BB27DC01992788272091AA
:101F6000020A3091030A44275527820F931FA41FAA
:101F7000B51FBC01CD010E94A707DC01CB019093E6
:101F8000090A8093080A20918805309189053093C9
:101F90000B0A20930A0A10920C0A10920D0A109252
:101FA0000E0A10920F0A1092100AAA27BB270EE7FA
:101FB00015E0AC01BD018091100A0E94A90688EECF
:101FC00099E01F910F910895CF92DF92EF92FF92C7
:101FD0000F931F93CF93DF93CDB7DEB7AC970FB6B8
:101FE000F894DEBF0FBECDBF7C016B01CE01019620
:101FF0000E94F50D892B19F080E090E02DC0B7010B
:10200000CE0101960E94F50D7C01009729F18E0109
:102010000F5D1F4FB601C8010E94E1161CA6C80142
:102020000E94720D8BE0F701D8010D9001928A9504
:10203000E1F780917E0590917F05A0918005B09198
:1020400081052091880530918905AC01BD0180E0B2
:102050000E9420078FEF90E0AC960FB6F894DEBF99
:102060000FBECDBFDF91CF911F910F91FF90EF90E9
:10207000DF90CF900895CF93DF93CDB7DEB7A097D1
:102080000FB6F894DEBF0FBECDBFBC01CE010196E6
:102090000E94F50D0097C9F18C85992774E09695FB
:1020A00087957A95E1F79C012170307080FF2CC0F4
:1020B0008B8D9C8D9C01442755278D899E89AA274D
:1020C000BB27DC0199278827280F391F4A1F5B1F70
:1020D0002093E0073093E1074093E2075093E30732
:1020E000211531054105510561F482E090E0A0E041
:1020F000B0E08093E0079093E107A093E207B093EC
:10210000E3078FEF90E001C0C901A0960FB6F894E5
:10211000DEBF0FBECDBFDF91CF9108958091E00764
:102120009091E107A091E207B091E307BC01CD01D6
:1021300008959B01AC0180911D0A882341F0A2E023
:10214000220F331F441F551FAA95D1F704C0220F39
:10215000331F441F551FE9E056954795379527953E
:10216000EA95D1F78091190A90911A0AA0911B0A59
:10217000B0911C0A820F931FA41FB51FBC01CD0193
:1021800008956F927F928F929F92AF92BF92CF925B
:10219000DF92EF92FF920F931F93CF93DF93FC0197
:1021A000EB0159016A0180911D0A882339F0CE01A3
:1021B000DF018F779070A070B07005C0CE01DF0195
:1021C0009070A070B0707C01BE01CF010E94991088
:1021D0003B014C0102E815E020918605309187050E
:1021E000AB01BC0180E00E94A90680911D0A2091EC
:1021F000860530918705882301F1F701EE0FFF1F57
:10220000EE0FFF1FE20FF31F80819181A281B38146
:1022100080709070A070B07F2FEF3FEF4FEF5FE0C6
:10222000A222B322C422D5228A299B29AC29BD2906
:1022300080839183A283B38307C0EE0CFF1CE20E60
:10224000F31EF701A082B1822091860530918705A7
:10225000B401A30180E00E9420078091150A9091AB
:10226000160AA091170AB091180A2091190A309104
:102270001A0A40911B0A50911C0A821B930BA40B53
:10228000B50B860D971DA81DB91D209186053091AF
:102290008705AC01BD0180E00E942007DF91CF914E
:1022A0001F910F91FF90EF90DF90CF90BF90AF9074
:1022B0009F908F907F906F900895DC01CB012FEF5E
:1022C0003FEF4FEF5FE0BC01CD010E94C1100895C8
:1022D0009F92AF92BF92CF92DF92EF92FF920F93B5
:1022E0001F93CF93DF93EC01962EACA0BDA08FEF90
:1022F00091E0A822B9228CA19DA1AEA1BFA1019617
:10230000A11DB11D8CA39DA3AEA3BFA30197A105E1
:10231000B10509F49FC0A114B10409F09BC088A1C4
:1023200099A1AA27BB272AA13BA1AC01BD0180E04E
:102330000E9420072C8D3D8D4E8D5F8D8CA19DA11F
:10234000AEA1BFA1C8A0D9A082179307A407B50763
:10235000C8F5C601AA27BB27BC01CD010E94D5073D
:102360007B018C010894C11CD11CC601AA27BB2784
:10237000BC01CD010E94D507DC01CB01E816F906AE
:102380000A071B0719F4C8A2D9A20EC0C801B701D9
:102390000E945D09DC01CB01BC01CD010E94A707B1
:1023A000DC01CB0188A399A388A199A1AA27BB2707
:1023B0000EE715E02AA13BA1AC01BD0180E00E941F
:1023C000A90648C0C601AA27BB27BC01CD010E94AF
:1023D000D5077B018C010894C11CD11CC601AA271A
:1023E000BB27BC01CD010E94D507DC01CB01E8165B
:1023F000F9060A071B0719F4C8A2D9A22BC060E08E
:1024000070E080E090E00E94E90A7B018C01611598
:1024100071058105910511F4C50137C088A199A105
:10242000AA27BB27BC01CD010E94D507DC01CB0147
:10243000A8019701BC01CD010E94C110C801B701DC
:102440000E945D11C801B7010E94A707DC01CB0102
:1024500088A399A38AA19BA1A80EB91EF501908219
:102460008FEF88A72CA13DA14EA15FA18C8D9D8DE2
:10247000AE8DBF8D82179307A407B50720F42C8F6C
:102480003D8F4E8F5F8F8FEF90E0DF91CF911F9147
:102490000F91FF90EF90DF90CF90BF90AF909F9003
:1024A00008956F927F928F929F92AF92BF92CF9238
:1024B000DF92EF92FF920F931F93CF93DF93CDB7ED
:1024C000DEB7A0970FB6F894DEBF0FBECDBFBC013C
:1024D000CE0101960E94F50D7C01009709F45AC0C7
:1024E00060907E0570907F058090800590908105BA
:1024F000FC0184899589AA27BB276C01BB24AA24E7
:10250000828D938DAA27BB27A80EB91ECA1EDB1E7B
:102510008385803149F4C601B5010E94BA0B882336
:1025200019F480E090E036C00EE715E020918805B0
:1025300030918905B401A30180E00E94A90685EECF
:10254000F701808380917E0590917F05A0918005A1
:10255000B09181052091880530918905AC01BD01BC
:1025600080E00E942007C601B5010E945D097B0141
:102570008C0120E030E040E050E0C601B5010E944F
:10258000C11057016801E114F1040105110559F763
:102590008FEF90E0A0960FB6F894DEBF0FBECDBFD0
:1025A000DF91CF911F910F91FF90EF90DF90CF902F
:1025B000BF90AF909F908F907F906F9008954F92B3
:1025C0005F926F927F928F929F92AF92BF92CF92C3
:1025D000DF92EF92FF920F931F93CF93DF93CDB7CC
:1025E000DEB7E3970FB6F894DEBF0FBECDBF2C0168
:1025F000BC01CE0101960E94F50D892B19F080E0F7
:1026000090E0CEC08091E0079091E107A091E207B1
:10261000B091E307BC01CD010E947D0A7C0160906E
:102620007E0570907F058090800590908105892BB4
:1026300009F042C060E070E080E090E00E94E90AAA
:102640005B016C01611571058105910511F4C701EC
:10265000A7C08091E0079091E107A091E207B091B7
:10266000E307BC01CD010E94A60BDC01CB01A60152
:102670009501BC01CD010E94C110C601B5010E94A7
:102680005D1180E092E0E0918805F091890511925A
:102690000197E9F7E0908805F0908905C601B5013A
:1026A0000E94A7073B014C0160937E0570937F0554
:1026B000809380059093810560E070E080E090E079
:1026C0000E94E90A5B016C018E010F5D1F4FB20190
:1026D000C8010E94E1161CA6C8010E94720DCE011D
:1026E0008D960E94391689A9682F7727762F66273D
:1026F000770F770F770F8AA99927F5E0880F991F31
:10270000FA95E1F7680F791F8BA98695680F711DFF
:102710002FA538A92C5B3740322F2227330F8EA5E7
:10272000992755E0880F991F5A95E1F7280F391F0F
:102730008DA5280F311D8BE0F701D8010D90019276
:102740008A95E1F780E2F70183871486158666870C
:10275000072F11270787208B432F5527418B228B6B
:10276000438BC601AA27BB27848B958B668B078B6F
:10277000208F418FA28EB38E148E158E168E178EDB
:102780002091880530918905B401A30184850E94B8
:102790002007C601B5010E945D11C2010E949D0F74
:1027A000E3960FB6F894DEBF0FBECDBFDF91CF9199
:1027B0001F910F91FF90EF90DF90CF90BF90AF905F
:1027C0009F908F907F906F905F904F9008952F9281
:1027D0003F925F926F927F928F929F92AF92BF9241
:1027E000CF92DF92EF92FF920F931F93CF93DF93DD
:1027F000CDB7DEB7EB970FB6F894DEBF0FBECDBFF7
:102800006C01BC01CE0101960E94F50D892B19F0D7
:1028100080E090E0D4C18091E0079091E107A09121
:10282000E207B091E307BC01CD010E947D0A1C01C3
:1028300020917E0530917F05409180055091810562
:1028400028AF39AF4AAF5BAF892B09F06CC060E0AD
:1028500070E080E090E00E94E90A6CAB7DAB8EAB4B
:102860009FAB611571058105910511F4C101A7C1E7
:102870008091E0079091E107A091E207B091E30712
:10288000BC01CD010E94A60BDC01CB012CA93DA906
:102890004EA95FA9BC01CD010E94C1106CA97DA900
:1028A0008EA99FA90E945D1180E092E0E0918805C9
:1028B000F091890511920197E9F7209088053090F1
:1028C00089056CA97DA98EA99FA90E94A70768AF59
:1028D00079AF8AAF9BAF60937E0570937F0580933D
:1028E00080059093810501E010E08091DE079091D2
:1028F000DF0708171907B8F4C801AA27BB2728ADB6
:1029000039AD4AAD5BAD820F931FA41FB51F209157
:10291000880530918905AC01BD0180E00E94200747
:102920000F5F1F4FE2CF60E070E080E090E00E9418
:10293000E90A6CAB7DAB8EAB9FAB71E2E72EF12C5D
:10294000EC0EFD1EB601C7010E94E1161CA6C701D0
:102950000E94720DCE018D960E94391689A9C82E4B
:10296000DD24DC2CCC24DD0CDD0CDD0C8AA99927C0
:1029700055E0880F991F5A95E1F7C80ED91E8BA90B
:102980008695C80ED11C0FA518A90C5B1740102FF7
:102990000027110F8EA5992735E0880F991F3A95CA
:1029A000E1F7080F191F8DA5080F111D8BE0F1012C
:1029B000D7010D9001928A95E1F720E1522EF101A5
:1029C000538614861586C686AD2CBB24A786008B3D
:1029D000E12EFF24E18A028BE38A2CA93DA94EA9AE
:1029E0005FA93A0188249924648A758AC68AA78ACD
:1029F000008FE18E228F338F148E158E168E178ED8
:102A0000209188053091890548AD59AD6AAD7BADFF
:102A100084850E94200720908805309089058BE0EE
:102A2000F101AAE8B5E00D9001928A95E1F7F10174
:102A3000538614861586C686A786008BE18A028B8C
:102A4000E38A648A758AC68AA78A008FE18E2CA9D8
:102A50003DA9228F338F148E158E168E178E20E28D
:102A600030E0220E331E8BE0F101A6E9B5E00D90B7
:102A700001928A95E1F7F101538614861586C68680
:102A8000A786008BE18A028BE38A8091E007909110
:102A9000E107A091E207B091E30704C0B695A795BE
:102AA000979587955A94D2F7848B958BC68AA78A77
:102AB000008FE18E8091E0079091E107828F938FE4
:102AC000148E158E168E178E8101020F131F8091A2
:102AD000880590918905081B190BF2E000301F074B
:102AE00068F4E0918805F0918905E00FF11F1082EC
:102AF0000F5F1F4F22E00030120798F36CA97DA9E9
:102B00008EA99FA90E94A707DC01CB01209188050F
:102B100030918905AC01BD0180E00E94200780E072
:102B200092E0E0918805F091890511920197E9F70B
:102B300001E010E08091DE079091DF070817190788
:102B4000C8F46CA97DA98EA99FA90E94A707DC01E2
:102B5000CB01A80166277727480F591F6A1F7B1FE3
:102B6000209188053091890580E00E9420070F5F41
:102B70001F4FE0CF6CA97DA98EA99FA90E94A7072E
:102B8000DC01CB012091DE073091DF074427552778
:102B9000820F931FA41FB51F0197A109B10980934C
:102BA0007E0590937F05A0938005B09381056CA965
:102BB0007DA98EA99FA90E945D118FEF90E0EB96F1
:102BC0000FB6F894DEBF0FBECDBFDF91CF911F913E
:102BD0000F91FF90EF90DF90CF90BF90AF909F90BC
:102BE0008F907F906F905F903F902F900895CF923D
:102BF000DF92EF92FF920F931F93CF93DF93EE2418
:102C0000FF2487018091E0079091E107A091E207FE
:102C1000B091E307A8019701BC01CD010E940C0A05
:102C2000EC01892BE9F0CC24DD2498819923C1F0B3
:102C30008B8583FD07C0953E29F09E3219F0CE01A9
:102C40000E945112A0960894C11CD11C80E1C816A4
:102C5000D1045CF30894E11CF11C011D111DD2CFBD
:102C6000DF91CF911F910F91FF90EF90DF90CF9068
:102C70000895FC018AE1808384E0818384ED97E0FC
:102C80008283938381E184838EE185831682089514
:102C90000F931F93CF93DF938C01EB010097B9F152
:102CA0006CE070E081E090E00E94C719FC010097A1
:102CB00081F1209771F0C287D38721E02383A0910F
:102CC000460AB091470AAB2B21F49093470A8093B0
:102CD000460A01151105C9F00087118703810260BA
:102CE0000383A091480AB091490AAB2B71F4F09389
:102CF000490AE093480AC0914A0AD0914B0ACD2B69
:102D000021F4F0934B0AE0934A0ACF0102C0672BEB
:102D100039F6DF91CF911F910F910895CF93DF93F3
:102D2000CDB7DEB7A5E0B0E0AC0FBD1F2D913D9152
:102D3000AD01B9018091480A9091490A0E94121789
:102D4000DF91CF9108956091480A7091490A0E94DD
:102D5000E31908950F931F93CF93DF93EC0100E0E5
:102D600010E0E091480AF091490A238121FF22C036
:102D700089918823A1F00084F185E02D0995892BA4
:102D800011F00FEF1FEF8991882329F0E091480A95
:102D9000F091490AF0CFE091480AF091490A008485
:102DA000F185E02D8AE00995892B11F00FEF1FEFD7
:102DB000C80102C08FEF9FEFDF91CF911F910F915C
:102DC0000895FB01DC0101900D920020E1F70895C8
:102DD000FB01DC014150504030F08D910190801991
:102DE00019F40020B9F7881B990B0895FB01DC0149
:102DF0004150504048F001900D920020C9F701C0A9
:102E00001D9241505040E0F70895DC015C9155233C
:102E100041F05F7D51341CF05B350CF45C931196EE
:102E2000F5CF08952F923F924F925F926F927F92CB
:102E30008F929F92AF92BF92CF92DF92EF92FF92CA
:102E40000F931F93CF93DF93CDB7DEB762970FB683
:102E5000F894DEBF0FBECDBFAA24BB2465014C0190
:102E60006D877E874F87588B44245524FC0146820A
:102E70005782838181FD5BC28FEF9FEF6FC240FE5F
:102E800044C2862D80538A30E0F4F0E36F1641F49B
:102E90002A89222329F4772019F480E091E08BC05D
:102EA0008AE09A89989F902D1124892F860D80534E
:102EB0008A8B882314F4EFE7EA8B43FC38C27A88C4
:102EC00036C243FE05C0FA89FF2311F421E02A8BA4
:102ED000862D992787FD90958836910554F585367E
:102EE00091050CF06BC08835910509F4D3C0893584
:102EF0009105B4F48B32910509F442C08C329105EE
:102F000044F48032910509F43FC0839709F442C02C
:102F1000F2C18D329105D9F18E9709F440C0EBC111
:102F20008336910509F454C08436910509F478C0BC
:102F3000E2C18037910509F4A5C08137910584F479
:102F40008C369105B1F18D3691052CF489369105B9
:102F500009F466C0D0C18F36910509F490C0CBC189
:102F60008537910509F498C08637910524F4833795
:102F70009105B9F1C0C18837910509F48BC0BBC177
:102F800080E190E0482A592AE0E2F0E005C080E8BC
:102F900090E011C0E0E4F0E04E2A5F2AC8C188E06A
:102FA00090E0482A592AEFEFFEEF4E225F221A8A5C
:102FB000BEC184E090E0482A592AB9C10F2EFFE330
:102FC000AF2EF02D7A940F2EF3E66F2EF02D3AC12E
:102FD000EF85F889CF0102968F87988BA0807A942D
:102FE00031C1EF85F889CF0102968F87988BA08039
:102FF000B18043FE0BC0EA898E2F992787FD9095FB
:10300000BC01C5010E94281B898B07C0F5010190F6
:103010000020E9F73197EA19E98BF9897F1A12C183
:1030200042FE0BC0EF85F889CF0104968F87988BFD
:1030300020813181428153810DC0EF85F889CF0114
:1030400002968F87988B808191819C01442737FD60
:103050004095542F59016A01552364F4E2E0F0E0F1
:103060004E2A5F2AD094C094B094A094A11CB11CA5
:10307000C11CD11C8FEB9FEF482259222BC098E036
:10308000998B0AC0E0E4F0E04E2A5F2A0F2EF8E7A1
:103090006F2EF02DF0E1F98B42FE0BC0EF85F88921
:1030A000CF0104968F87988B208131814281538193
:1030B0000BC0EF85F889CF0102968F87988B8081AE
:1030C00091819C014427552759016A01EFECFFEFDC
:1030D0004E225F221E010894211C311CF989EF2E1B
:1030E000FF2400271127C601B501A80197010E94FE
:1030F000661BDC01CB01F10180838A301CF0860D58
:10310000815203C0F1018081805DF10181931F0133
:10311000C601B501A80197010E94661B59016A0109
:103120002115310541055105F1F6CE010196A22C7C
:10313000A81AC20182739070892B09F07A9446FE16
:103140000FC0872D992787FD9095F989F03131F4CB
:103150000F2EFEEF7F2EF02D780E02C0782E7A947F
:1031600043FE12C08A89282F332727FD30958A2DE8
:103170009927821793072CF0E7EFFFEF4E225F228B
:1031800003C0FA89FA19FA8B43FE03C02A89721A1E
:1031900001C07A18C20180789170892B69F4872D5B
:1031A0007A9418164CF4B40180E290E00E94E3197E
:1031B000872D7A941816BCF341FE04C0B4018DE249
:1031C00090E00BC044FE04C0B4018BE290E005C067
:1031D00045FE05C0B40180E290E00E94E31946FE7E
:1031E0000FC0B40180E390E00E94E3198989803127
:1031F00039F4862D992787FD9095B4010E94E31933
:1032000050FE0DC0872D7A9418164CF4B40180E35B
:1032100090E00E94E319872D7A941816BCF343FEC0
:1032200011C08A89982F91509A8B18165CF4B401BA
:1032300080E390E00E94E3198A89E82FE150EA8B4D
:103240001816ACF3842D807869F4872D7A941816BB
:103250004CF4B40180E290E00E94E319872D7A9447
:103260001816BCF3F3E66F1641F48A2D992787FDF3
:103270009095B4010E94E3192DC023E76216B1F4C2
:1032800089898150898B8F3F29F1F50180819927A8
:1032900087FD90950894A11CB11CB4010E94E3190C
:1032A00099899150998B9F3F81F714C0CE01019667
:1032B0002816390679F08E010F5F1F4FF1018291B8
:1032C0001F01992787FD9095B4010E94E3192016EC
:1032D0003106A1F7842D8078A9F0872D7A941816ED
:1032E0008CF4B40180E290E00E94E319872D7A9477
:1032F0001816BCF307C0862D992787FD9095B40159
:103300000E94E3194424552412C0F5E26F1641F4DB
:103310004424552443941A8A7A882AE0298B07C0CA
:10332000862D992787FD9095B4010E94E319F40139
:10333000838183FF08C0ED85FE85CF0101968D87CF
:103340009E87649005C0ED85FE856190ED87FE87C0
:10335000662009F094CDF4018681978162960FB6BC
:10336000F894DEBF0FBECDBFDF91CF911F910F91BB
:10337000FF90EF90DF90CF90BF90AF909F908F9095
:103380007F906F905F904F903F902F9008950F9394
:103390001F93CF93DF93869F8001879F100D969F89
:1033A000100D1124C8010E94161AEC01009731F08B
:1033B000A80160E070E00E94211BCE01DF91CF9157
:1033C0001F910F9108950F931F93CF93DF938C015B
:1033D000EB018B81992781FF22C082FF14C02E81CF
:1033E0003F814C815D81241735073CF4A881B98168
:1033F0000D93A883B9832E813F812F5F3F4F2E838A
:103400003F83C8010EC0E885F985802F0995892B77
:1034100031F4EE81FF813196EE83FF83F2CF8FEF9F
:103420009FEFDF91CF911F910F910895CF93DF937D
:103430009C01029710F422E030E040E050E0E0917F
:10344000AA05F091AB05BF01DA013097B1F0808198
:1034500091818217930709F485C02817390738F43A
:103460004115510519F08417950708F4AC01DF01E7
:103470000280F381E02D309751F741155105B9F0E5
:10348000DA01A21BB30B149708F49A01FB01A0E028
:10349000B0E0672B61F0608171816417750709F4F2
:1034A0003FC0DF010280F381E02D3097A1F740910A
:1034B000A8055091A9054115510541F44091A40575
:1034C0005091A5055093A9054093A805A091A60584
:1034D000B091A7051097D9F0FA01BD01641B750BD7
:1034E0006217730788F0D90112966A177B0760F09C
:1034F000420F531F4E5F5F4F5093A9054093A8059D
:1035000021933193CF0137C080E090E034C0ADB754
:10351000BEB7E091A205F091A305AE1BBF0BDCCFB7
:103520002417350769F0421B530BEF01C40FD51F59
:10353000299339934250504040835183CE011BC0A0
:10354000109749F02281338112962D933C93139763
:10355000CF01029610C0428153815093AB05409336
:10356000AA05F6CF109771F7228133813093AB050E
:103570002093AA05EDCFDF91CF910895CF93DF93EC
:10358000009709F45BC0DC01129712961D921C9201
:1035900013978091AA059091AB050097D1F1FC019A
:1035A00040E050E0EA17FB0710F5AF010280F3811D
:1035B000E02D3097B9F7EA01AA83BB83FA0132966E
:1035C00028813981E20FF31FEA17FB07B9F56D91E6
:1035D0007C911197260F371F2E5F3F4F2883398329
:1035E00012964D915C9113974A835B8327C0ED013E
:1035F0001296ED93FC9313972D913C911197C20F66
:10360000D31FCE0102968E179F0741F04115510539
:1036100091F6B093AB05A093AA0510C06A817B8197
:10362000260F371F2E5F3F4F2D933C93119722811A
:10363000338112962D933C931397E8CFDF91CF916E
:103640000895DC0101C06D9341505040E0F70895AA
:10365000FC016150704001900110D8F78095909561
:103660008E0F9F1F0895629FD001739FF001829F6C
:10367000E00DF11D649FE00DF11D929FF00D839F01
:10368000F00D749FF00D659FF00D9927729FB00D9E
:10369000E11DF91F639FB00DE11DF91FBD01CF01B1
:1036A00011240895AA1BBB1B51E107C0AA1FBB1F11
:1036B000A617B70710F0A61BB70B881F991F5A95BE
:1036C000A9F780959095BC01CD010895A1E21A2E2D
:1036D000AA1BBB1BFD010DC0AA1FBB1FEE1FFF1FB6
:1036E000A217B307E407F50720F0A21BB30BE40B06
:1036F000F50B661F771F881F991F1A9469F760954D
:103700007095809590959B01AC01BD01CF01089506
:10371000566F6C204C6162656C3A2025730D0A006F
:103720002061747269623A2000253032780020638B
:103730006C75737465723A20002530345800092581
:103740003032642F253032642F2530346400202538
:103750003032643A253032643A25303264000D004C
:10376000447269766520303A2025644D4220004D30
:103770004F44454C3A2025730D0A00466F756E6420
:103780003A20444F534641542031360D00466F7560
:103790006E643A2046415431360D00466F756E64B2
:1037A0003A204641543136204C42410D00466F7557
:1037B0006E643A204641543332204C42410D00465B
:1037C0006F756E643A2046415433320D00466F7572
:1037D0006E643A204E6F20506172746974696F6E26
:1037E000210D00436C75737465722053697A6520EE
:1037F000202020203A2025640D0A00466972737447
:1038000020736563746F7220202020203A20256C7D
:10381000640D0A0053697A65202020202020202092
:1038200020202020203A20256C640D0A0073656357
:10383000746F72732F636C757374657220203A20F5
:1038400025750D0A00466972737420466174312033
:10385000536563746F723A20256C640D0A004669E3
:10386000727374204661743220536563746F723AC8
:1038700020256C640D0A00466972737420446174DB
:1038800061205365637420203A20256C640D0A0082
:103890004E756D626572206F6620436C757374207F
:1038A000203A20256C640D0A004E756D6265722009
:1038B0006F6620536563747320203A20256C640D75
:1038C0000A0046415431362F33322066696C652038
:1038D00073797374656D20647269766572207631D0
:1038E0002E30300D00577269746564206279204172
:1038F0006E67656C6F2042616E6E61636B20616EF6
:10390000642047696F7264616E6F204272756E6FDA
:1039100020576F6C616E69756B0D0A0D000D0A43BF
:103920003A5C3E646972202A2E2A0D006469723165
:10393000000D0A433A5C3E6D6B6469722025730D7D
:103940000A000D0A4469726563746F7279202573E9
:103950002063726561746564210D0A000D0A446973
:10396000726563746F7279202573206E6F742063A3
:10397000726561746564210D0A000D0A433A5C3E6C
:1039800063642025730D0A000D0A433A5C25733EDB
:10399000646972202A2E2A0D0A000D0A4572726F80
:1039A0007220696E206364202573000D0A433A5C1F
:1039B00025733E6D616B6520726561646D652E7463
:1039C00078740D0A00726561646D652E74787400F8
:1039D0000D0A46696C6520726561646D652E7478A8
:1039E00074206372656174656420737573636566C2
:1039F000756C790D000D0A4572726F7220637265E5
:103A00006174696E6720726561646D652E74787487
:103A10000D000D0A433A5C25733E6F70656E20728F
:103A20006561646D652E7478740D0A000D0A66690F
:103A30006C652025732C206F70656E656420746F33
:103A40002077726974650D0A000D0A433A5C25738C
:103A50003E707574202254657374696E672031322C
:103A6000332220696E2020726561646D652E747842
:103A7000740D0A000D0A57726974696E67206669D1
:103A80006C652E2E2E0D000D0A52656164696E67FD
:103A90002066696C652E2E2E0D000D0A436C6F7327
:103AA000696E672066696C652E2E2E0D000D0A4624
:103AB000696C6520726561646D652E74787420632D
:103AC0006C6F7365642E0D000D0A4572726F722063
:103AD0006F70656E696E6720726561646D652E74C6
:103AE00078740D000D0A433A5C25733E72656E6171
:103AF0006D6520726561646D652E747874207465DF
:103B000073742E7478740D0A00746573742E74784F
:103B100074000D0A4572726F722072656E616D6974
:103B20006E6720726561646D652E7478740D000D8A
:103B30000A433A5C25733E64656C202A2E2A0D0ADE
:103B4000000D0A433A5C25733E6364202E2E0D0A55
:103B5000002E2E000D0A4572726F7220696E20636E
:103B600064202E2E0D000D0A433A5C3E72656D6F87
:103B700076652025730D0A000D0A4572726F72205A
:103B800072656D6F76696E672025730D0A00FFFF01
:103B9000FFFFFFFFFFFFE807AC052E2020202020BD
:103BA0002020202020002E2E202020202020202019
:083BB000200020004C0A000077
:00000001FF
