:100000000C942A000C94B2000C9447000C94470006
:100010000C9447000C9447000C9447000C94470044
:100020000C9447000C9447000C9447000C948D00EE
:100030000C9447000C9447000C9447000C94470024
:100040000C9447000C9447000C9447000C94470014
:100050000C94470011241FBECFE5D4E0DEBFCDBF16
:1000600010E0A0E6B0E0E4E2F4E002C005900D92FA
:10007000A439B107D9F710E0A4E9B0E001C01D929E
:10008000A539B107E1F70E9462010C9410020C94AB
:10009000000011B88DEF80B986B7806886BF0895DB
:1000A00084EA86BF06B607FEFDCF089584E986BFC1
:1000B00006B604FCFDCF089583B984E886BF06B672
:1000C00007FEFDCF0895882311F084EC01C084E879
:1000D00086BF06B607FEFDCF83B108955D9BFECFB8
:1000E0008CB9089510BC83E389B988E98AB98EE890
:1000F00080BD08951F93CF93DF93EC0110E0FE01C4
:10010000E10FF11D8081882321F00E946E001F5FA6
:10011000F6CFDF91CF911F9108951F920F920FB6E6
:100120000F9211242F933F934F935F936F937F937D
:100130008F939F93AF93BF93EF93FF938CB10E94E4
:100140006E00FF91EF91BF91AF919F918F917F9141
:100150006F915F914F913F912F910F900FBE0F9034
:100160001F9018951F920F920FB60F9211242F9384
:100170003F934F935F936F937F938F939F93AF932F
:10018000BF93EF93FF931092940080916000909141
:10019000610020919400FC01E20FF11D20812223D7
:1001A00071F020919400FC01E20FF11D80810E940A
:1001B0006E00809194008F5F80939400E6CFFF9152
:1001C000EF91BF91AF919F918F917F916F915F91CF
:1001D0004F913F912F910F900FBE0F901F90189548
:1001E000CF93DF9300D0CDB7DEB7880F6A838983C2
:1001F0000E9450006A818981611101C08F5F0F9058
:100200000F90DF91CF910C945C000F931F93CF93CD
:10021000DF93CDB7DEB760970FB6F894DEBF0FBEA1
:10022000CDBF182F062F97E0E2E6F0E0DE01119631
:1002300001900D929A95E1F7FE01389689E0DF0171
:100240001D928A95E9F761E0812F0E94F000802FCE
:100250000E945C0060E0812F0E94F00080E00E941C
:10026000630040E150E0BE016D5F7F4F90E00E946F
:10027000CB01CE0101960E947A000E945600609642
:100280000FB6F894DEBF0FBECDBFDF91CF911F91A7
:100290000F9108951F93CF93DF931F92CDB7DEB7D1
:1002A000162F61E049830E94F000812F0E945C00BC
:1002B0004981842F0E945C000F90DF91CF911F91A4
:1002C0000C945600CF93DF93CDB7DEB760970FB68F
:1002D000F894DEBF0FBECDBF8A98929AB99AC19AA0
:1002E000F8948BB780648BBF85B7826085BF0E940E
:1002F00049000E947200789448E06DE28DE10E940E
:100300004A010E9450008AE30E945C0082E30E943E
:100310005C000E9450008BE30E945C0010929400ED
:1003200080919400853038F581E00E9463004AE0B6
:1003300050E0BE016F5F7F4F90E00E94CB01809143
:100340009400823039F0843041F081110EC082E790
:1003500090E005C08FE790E002C083E890E00E9443
:100360007A00CE0101960E947A00809194008F5FFE
:1003700080939400D5CF80E00E9463000E945600D5
:1003800087E890E00E947A0083EC99E00197F1F70A
:1003900000C00000B6CFFB019F01E8944230C4F0DA
:1003A0004532B4F44A3029F497FB1EF490958195B8
:1003B0009F4F642F77270E94FC01805D8A330CF0E9
:1003C000895D8193CB010097A1F716F45DE251930B
:1003D0001082C9010C94EC01DC01FC01672F7191C2
:1003E0007723E1F7329704C07C916D93708362911B
:1003F000AE17BF07C8F30895AA1BBB1B51E107C086
:10040000AA1FBB1FA617B70710F0A61BB70B881FA4
:10041000991F5A95A9F780959095BC01CD01089533
:04042000F894FFCF7E
:100424008E003078777777770000000000000000B6
:1004340000000D506F7A79636A613A20582D0020CC
:10044400592D00205A2D0020202020200D00546515
:04045400737421009C
:00000001FF
