:100000000C942A000C9471000C9447000C94470047
:100010000C9447000C9447000C9447000C94470044
:100020000C9447000C9447000C9447000C94470034
:100030000C9447000C9447000C9447000C94470024
:100040000C9447000C9447000C9447000C94470014
:100050000C94470011241FBECFE5D8E0DEBFCDBF12
:1000600010E0A0E6B0E0ECE7F1E002C005900D92F0
:10007000AA36B107D9F710E0AAE6B0E001C01D9298
:10008000AB36B107E1F70E94AF000C94BC000C94B2
:100090000000599883E389B910BC80B58F7B80BD7F
:1000A0008AB188618AB9579A08955D9BFECF8CB951
:1000B00008951F93CF93DF93EC0110E0FE01E10F51
:1000C000F11D8081882321F00E9455001F5FF6CF2B
:1000D0008DE00E9455008AE0DF91CF911F910C9432
:1000E00055001F920F920FB60F9211242F933F933A
:1000F0004F935F936F937F938F939F93AF93BF9330
:10010000EF93FF9310926A008091600090916100DC
:1001100020916A00FC01E20FF11D2081222371F081
:1001200020916A00FC01E20FF11D80810E945500C0
:1001300080916A008F5F80936A00E6CFFF91EF9114
:10014000BF91AF919F918F917F916F915F914F91EF
:100150003F912F910F900FBE0F901F9018958A9886
:10016000929AF8948BB780648BBF85B7826085BF05
:0C0170000E9449007894FFCFF894FFCF64
:0A017C00620054657374210D0A003F
:00000001FF
